{
  "_format": "hh-sol-artifact-1",
  "contractName": "Assessment",
  "sourceName": "contracts/Assessment.sol",
  "abi": [
    {
      "inputs": [],
      "stateMutability": "payable",
      "type": "constructor"
    },
    {
      "anonymous": false,
      "inputs": [
        {
          "indexed": false,
          "internalType": "string",
          "name": "name",
          "type": "string"
        },
        {
          "indexed": false,
          "internalType": "address",
          "name": "_address",
          "type": "address"
        }
      ],
      "name": "ContactAdded",
      "type": "event"
    },
    {
      "anonymous": false,
      "inputs": [
        {
          "indexed": false,
          "internalType": "string",
          "name": "name",
          "type": "string"
        },
        {
          "indexed": false,
          "internalType": "address",
          "name": "_address",
          "type": "address"
        }
      ],
      "name": "ContactRemoved",
      "type": "event"
    },
    {
      "inputs": [
        {
          "internalType": "string",
          "name": "_name",
          "type": "string"
        },
        {
          "internalType": "address",
          "name": "_address",
          "type": "address"
        }
      ],
      "name": "addContact",
      "outputs": [],
      "stateMutability": "nonpayable",
      "type": "function"
    },
    {
      "inputs": [
        {
          "internalType": "uint256",
          "name": "",
          "type": "uint256"
        }
      ],
      "name": "contacts",
      "outputs": [
        {
          "internalType": "string",
          "name": "name",
          "type": "string"
        },
        {
          "internalType": "address",
          "name": "_address",
          "type": "address"
        }
      ],
      "stateMutability": "view",
      "type": "function"
    },
    {
      "inputs": [],
      "name": "getContacts",
      "outputs": [
        {
          "components": [
            {
              "internalType": "string",
              "name": "name",
              "type": "string"
            },
            {
              "internalType": "address",
              "name": "_address",
              "type": "address"
            }
          ],
          "internalType": "struct Assessment.Contact[]",
          "name": "",
          "type": "tuple[]"
        }
      ],
      "stateMutability": "view",
      "type": "function"
    },
    {
      "inputs": [],
      "name": "owner",
      "outputs": [
        {
          "internalType": "address payable",
          "name": "",
          "type": "address"
        }
      ],
      "stateMutability": "view",
      "type": "function"
    },
    {
      "inputs": [
        {
          "internalType": "string",
          "name": "_name",
          "type": "string"
        },
        {
          "internalType": "address",
          "name": "_address",
          "type": "address"
        }
      ],
      "name": "removeContact",
      "outputs": [],
      "stateMutability": "nonpayable",
      "type": "function"
    }
  ],
  "bytecode": "0x6080604052335f806101000a81548173ffffffffffffffffffffffffffffffffffffffff021916908373ffffffffffffffffffffffffffffffffffffffff160217905550611336806100505f395ff3fe608060405234801561000f575f80fd5b5060043610610055575f3560e01c8063708adcd5146100595780638c3f6f80146100755780638da5cb5b14610091578063db920b77146100af578063e0f478cb146100cd575b5f80fd5b610073600480360381019061006e91906109b4565b6100fe565b005b61008f600480360381019061008a91906109b4565b610277565b005b61009961057e565b6040516100a69190610a2e565b60405180910390f35b6100b76105a1565b6040516100c49190610bc5565b60405180910390f35b6100e760048036038101906100e29190610c18565b6106e1565b6040516100f5929190610c9a565b60405180910390f35b5f8054906101000a900473ffffffffffffffffffffffffffffffffffffffff1673ffffffffffffffffffffffffffffffffffffffff163373ffffffffffffffffffffffffffffffffffffffff161461018b576040517f08c379a000000000000000000000000000000000000000000000000000000000815260040161018290610d38565b60405180910390fd5b600160405180604001604052808481526020018373ffffffffffffffffffffffffffffffffffffffff16815250908060018154018082558091505060019003905f5260205f2090600202015f909190919091505f820151815f0190816101f19190610f50565b506020820151816001015f6101000a81548173ffffffffffffffffffffffffffffffffffffffff021916908373ffffffffffffffffffffffffffffffffffffffff16021790555050507f4dd1d48280a4fd07a4a2907ab7ee2e8788942634f4b291b24e9f9ea6c8582903828260405161026b929190610c9a565b60405180910390a15050565b5f8054906101000a900473ffffffffffffffffffffffffffffffffffffffff1673ffffffffffffffffffffffffffffffffffffffff163373ffffffffffffffffffffffffffffffffffffffff1614610304576040517f08c379a00000000000000000000000000000000000000000000000000000000081526004016102fb90610d38565b60405180910390fd5b5f5b60018054905081101561057957826040516020016103249190611059565b604051602081830303815290604052805190602001206001828154811061034e5761034d61106f565b5b905f5260205f2090600202015f0160405160200161036c919061111c565b604051602081830303815290604052805190602001201480156103fc57508173ffffffffffffffffffffffffffffffffffffffff16600182815481106103b5576103b461106f565b5b905f5260205f2090600202016001015f9054906101000a900473ffffffffffffffffffffffffffffffffffffffff1673ffffffffffffffffffffffffffffffffffffffff16145b15610566576001808080549050610413919061115f565b815481106104245761042361106f565b5b905f5260205f209060020201600182815481106104445761044361106f565b5b905f5260205f2090600202015f8201815f01908161046291906111a7565b50600182015f9054906101000a900473ffffffffffffffffffffffffffffffffffffffff16816001015f6101000a81548173ffffffffffffffffffffffffffffffffffffffff021916908373ffffffffffffffffffffffffffffffffffffffff16021790555090505060018054806104dd576104dc61128c565b5b600190038181905f5260205f2090600202015f8082015f6104fe91906107b5565b600182015f6101000a81549073ffffffffffffffffffffffffffffffffffffffff0219169055505090557f76be9dab7e679f0f2cd6897b213dc3df48cea1a62cce5ffdec3e64a39f31f0038383604051610559929190610c9a565b60405180910390a1610579565b8080610571906112b9565b915050610306565b505050565b5f8054906101000a900473ffffffffffffffffffffffffffffffffffffffff1681565b60606001805480602002602001604051908101604052809291908181526020015f905b828210156106d8578382905f5260205f2090600202016040518060400160405290815f820180546105f490610d83565b80601f016020809104026020016040519081016040528092919081815260200182805461062090610d83565b801561066b5780601f106106425761010080835404028352916020019161066b565b820191905f5260205f20905b81548152906001019060200180831161064e57829003601f168201915b50505050508152602001600182015f9054906101000a900473ffffffffffffffffffffffffffffffffffffffff1673ffffffffffffffffffffffffffffffffffffffff1673ffffffffffffffffffffffffffffffffffffffff1681525050815260200190600101906105c4565b50505050905090565b600181815481106106f0575f80fd5b905f5260205f2090600202015f91509050805f01805461070f90610d83565b80601f016020809104026020016040519081016040528092919081815260200182805461073b90610d83565b80156107865780601f1061075d57610100808354040283529160200191610786565b820191905f5260205f20905b81548152906001019060200180831161076957829003601f168201915b505050505090806001015f9054906101000a900473ffffffffffffffffffffffffffffffffffffffff16905082565b5080546107c190610d83565b5f825580601f106107d257506107ef565b601f0160209004905f5260205f20908101906107ee91906107f2565b5b50565b5b80821115610809575f815f9055506001016107f3565b5090565b5f604051905090565b5f80fd5b5f80fd5b5f80fd5b5f80fd5b5f601f19601f8301169050919050565b7f4e487b71000000000000000000000000000000000000000000000000000000005f52604160045260245ffd5b61086c82610826565b810181811067ffffffffffffffff8211171561088b5761088a610836565b5b80604052505050565b5f61089d61080d565b90506108a98282610863565b919050565b5f67ffffffffffffffff8211156108c8576108c7610836565b5b6108d182610826565b9050602081019050919050565b828183375f83830152505050565b5f6108fe6108f9846108ae565b610894565b90508281526020810184848401111561091a57610919610822565b5b6109258482856108de565b509392505050565b5f82601f8301126109415761094061081e565b5b81356109518482602086016108ec565b91505092915050565b5f73ffffffffffffffffffffffffffffffffffffffff82169050919050565b5f6109838261095a565b9050919050565b61099381610979565b811461099d575f80fd5b50565b5f813590506109ae8161098a565b92915050565b5f80604083850312156109ca576109c9610816565b5b5f83013567ffffffffffffffff8111156109e7576109e661081a565b5b6109f38582860161092d565b9250506020610a04858286016109a0565b9150509250929050565b5f610a188261095a565b9050919050565b610a2881610a0e565b82525050565b5f602082019050610a415f830184610a1f565b92915050565b5f81519050919050565b5f82825260208201905092915050565b5f819050602082019050919050565b5f81519050919050565b5f82825260208201905092915050565b5f5b83811015610aa7578082015181840152602081019050610a8c565b5f8484015250505050565b5f610abc82610a70565b610ac68185610a7a565b9350610ad6818560208601610a8a565b610adf81610826565b840191505092915050565b610af381610979565b82525050565b5f604083015f8301518482035f860152610b138282610ab2565b9150506020830151610b286020860182610aea565b508091505092915050565b5f610b3e8383610af9565b905092915050565b5f602082019050919050565b5f610b5c82610a47565b610b668185610a51565b935083602082028501610b7885610a61565b805f5b85811015610bb35784840389528151610b948582610b33565b9450610b9f83610b46565b925060208a01995050600181019050610b7b565b50829750879550505050505092915050565b5f6020820190508181035f830152610bdd8184610b52565b905092915050565b5f819050919050565b610bf781610be5565b8114610c01575f80fd5b50565b5f81359050610c1281610bee565b92915050565b5f60208284031215610c2d57610c2c610816565b5b5f610c3a84828501610c04565b91505092915050565b5f82825260208201905092915050565b5f610c5d82610a70565b610c678185610c43565b9350610c77818560208601610a8a565b610c8081610826565b840191505092915050565b610c9481610979565b82525050565b5f6040820190508181035f830152610cb28185610c53565b9050610cc16020830184610c8b565b9392505050565b7f596f7520617265206e6f7420746865206f776e6572206f6620746869732061635f8201527f636f756e74000000000000000000000000000000000000000000000000000000602082015250565b5f610d22602583610c43565b9150610d2d82610cc8565b604082019050919050565b5f6020820190508181035f830152610d4f81610d16565b9050919050565b7f4e487b71000000000000000000000000000000000000000000000000000000005f52602260045260245ffd5b5f6002820490506001821680610d9a57607f821691505b602082108103610dad57610dac610d56565b5b50919050565b5f819050815f5260205f209050919050565b5f6020601f8301049050919050565b5f82821b905092915050565b5f60088302610e0f7fffffffffffffffffffffffffffffffffffffffffffffffffffffffffffffffff82610dd4565b610e198683610dd4565b95508019841693508086168417925050509392505050565b5f819050919050565b5f610e54610e4f610e4a84610be5565b610e31565b610be5565b9050919050565b5f819050919050565b610e6d83610e3a565b610e81610e7982610e5b565b848454610de0565b825550505050565b5f90565b610e95610e89565b610ea0818484610e64565b505050565b5b81811015610ec357610eb85f82610e8d565b600181019050610ea6565b5050565b601f821115610f0857610ed981610db3565b610ee284610dc5565b81016020851015610ef1578190505b610f05610efd85610dc5565b830182610ea5565b50505b505050565b5f82821c905092915050565b5f610f285f1984600802610f0d565b1980831691505092915050565b5f610f408383610f19565b9150826002028217905092915050565b610f5982610a70565b67ffffffffffffffff811115610f7257610f71610836565b5b610f7c8254610d83565b610f87828285610ec7565b5f60209050601f831160018114610fb8575f8415610fa6578287015190505b610fb08582610f35565b865550611017565b601f198416610fc686610db3565b5f5b82811015610fed57848901518255600182019150602085019450602081019050610fc8565b8683101561100a5784890151611006601f891682610f19565b8355505b6001600288020188555050505b505050505050565b5f81905092915050565b5f61103382610a70565b61103d818561101f565b935061104d818560208601610a8a565b80840191505092915050565b5f6110648284611029565b915081905092915050565b7f4e487b71000000000000000000000000000000000000000000000000000000005f52603260045260245ffd5b5f81546110a881610d83565b6110b2818661101f565b9450600182165f81146110cc57600181146110e157611113565b60ff1983168652811515820286019350611113565b6110ea85610db3565b5f5b8381101561110b578154818901526001820191506020810190506110ec565b838801955050505b50505092915050565b5f611127828461109c565b915081905092915050565b7f4e487b71000000000000000000000000000000000000000000000000000000005f52601160045260245ffd5b5f61116982610be5565b915061117483610be5565b925082820390508181111561118c5761118b611132565b5b92915050565b5f815490506111a081610d83565b9050919050565b8181036111b557505061128a565b6111be82611192565b67ffffffffffffffff8111156111d7576111d6610836565b5b6111e18254610d83565b6111ec828285610ec7565b5f601f831160018114611219575f8415611207578287015490505b6112118582610f35565b865550611283565b601f19841661122787610db3565b965061123286610db3565b5f5b8281101561125957848901548255600182019150600185019450602081019050611234565b868310156112765784890154611272601f891682610f19565b8355505b6001600288020188555050505b5050505050505b565b7f4e487b71000000000000000000000000000000000000000000000000000000005f52603160045260245ffd5b5f6112c382610be5565b91507fffffffffffffffffffffffffffffffffffffffffffffffffffffffffffffffff82036112f5576112f4611132565b5b60018201905091905056fea2646970667358221220233ad428bfcd825405d28177d8f0cad02ed1ed06115bce2a84230fe09fb9786064736f6c63430008150033",
  "linkReferences": {},
  "deployedLinkReferences": {}
}